{
  "_format": "hh-sol-artifact-1",
  "contractName": "CryptoDevs",
  "sourceName": "contracts/CryptoDevs.sol",
  "abi": [
    {
      "inputs": [
        {
          "internalType": "string",
          "name": "baseURI",
          "type": "string"
        },
        {
          "internalType": "address",
          "name": "whitelistContract",
          "type": "address"
        }
      ],
      "stateMutability": "nonpayable",
      "type": "constructor"
    },
    {
      "anonymous": false,
      "inputs": [
        {
          "indexed": true,
          "internalType": "address",
          "name": "owner",
          "type": "address"
        },
        {
          "indexed": true,
          "internalType": "address",
          "name": "approved",
          "type": "address"
        },
        {
          "indexed": true,
          "internalType": "uint256",
          "name": "tokenId",
          "type": "uint256"
        }
      ],
      "name": "Approval",
      "type": "event"
    },
    {
      "anonymous": false,
      "inputs": [
        {
          "indexed": true,
          "internalType": "address",
          "name": "owner",
          "type": "address"
        },
        {
          "indexed": true,
          "internalType": "address",
          "name": "operator",
          "type": "address"
        },
        {
          "indexed": false,
          "internalType": "bool",
          "name": "approved",
          "type": "bool"
        }
      ],
      "name": "ApprovalForAll",
      "type": "event"
    },
    {
      "anonymous": false,
      "inputs": [
        {
          "indexed": true,
          "internalType": "address",
          "name": "previousOwner",
          "type": "address"
        },
        {
          "indexed": true,
          "internalType": "address",
          "name": "newOwner",
          "type": "address"
        }
      ],
      "name": "OwnershipTransferred",
      "type": "event"
    },
    {
      "anonymous": false,
      "inputs": [
        {
          "indexed": true,
          "internalType": "address",
          "name": "from",
          "type": "address"
        },
        {
          "indexed": true,
          "internalType": "address",
          "name": "to",
          "type": "address"
        },
        {
          "indexed": true,
          "internalType": "uint256",
          "name": "tokenId",
          "type": "uint256"
        }
      ],
      "name": "Transfer",
      "type": "event"
    },
    {
      "stateMutability": "payable",
      "type": "fallback"
    },
    {
      "inputs": [],
      "name": "_paused",
      "outputs": [
        {
          "internalType": "bool",
          "name": "",
          "type": "bool"
        }
      ],
      "stateMutability": "view",
      "type": "function"
    },
    {
      "inputs": [],
      "name": "_price",
      "outputs": [
        {
          "internalType": "uint256",
          "name": "",
          "type": "uint256"
        }
      ],
      "stateMutability": "view",
      "type": "function"
    },
    {
      "inputs": [
        {
          "internalType": "address",
          "name": "to",
          "type": "address"
        },
        {
          "internalType": "uint256",
          "name": "tokenId",
          "type": "uint256"
        }
      ],
      "name": "approve",
      "outputs": [],
      "stateMutability": "nonpayable",
      "type": "function"
    },
    {
      "inputs": [
        {
          "internalType": "address",
          "name": "owner",
          "type": "address"
        }
      ],
      "name": "balanceOf",
      "outputs": [
        {
          "internalType": "uint256",
          "name": "",
          "type": "uint256"
        }
      ],
      "stateMutability": "view",
      "type": "function"
    },
    {
      "inputs": [
        {
          "internalType": "uint256",
          "name": "tokenId",
          "type": "uint256"
        }
      ],
      "name": "getApproved",
      "outputs": [
        {
          "internalType": "address",
          "name": "",
          "type": "address"
        }
      ],
      "stateMutability": "view",
      "type": "function"
    },
    {
      "inputs": [
        {
          "internalType": "address",
          "name": "owner",
          "type": "address"
        },
        {
          "internalType": "address",
          "name": "operator",
          "type": "address"
        }
      ],
      "name": "isApprovedForAll",
      "outputs": [
        {
          "internalType": "bool",
          "name": "",
          "type": "bool"
        }
      ],
      "stateMutability": "view",
      "type": "function"
    },
    {
      "inputs": [],
      "name": "maxTokenIds",
      "outputs": [
        {
          "internalType": "uint256",
          "name": "",
          "type": "uint256"
        }
      ],
      "stateMutability": "view",
      "type": "function"
    },
    {
      "inputs": [],
      "name": "mint",
      "outputs": [],
      "stateMutability": "payable",
      "type": "function"
    },
    {
      "inputs": [],
      "name": "name",
      "outputs": [
        {
          "internalType": "string",
          "name": "",
          "type": "string"
        }
      ],
      "stateMutability": "view",
      "type": "function"
    },
    {
      "inputs": [],
      "name": "owner",
      "outputs": [
        {
          "internalType": "address",
          "name": "",
          "type": "address"
        }
      ],
      "stateMutability": "view",
      "type": "function"
    },
    {
      "inputs": [
        {
          "internalType": "uint256",
          "name": "tokenId",
          "type": "uint256"
        }
      ],
      "name": "ownerOf",
      "outputs": [
        {
          "internalType": "address",
          "name": "",
          "type": "address"
        }
      ],
      "stateMutability": "view",
      "type": "function"
    },
    {
      "inputs": [],
      "name": "presaleEnded",
      "outputs": [
        {
          "internalType": "uint256",
          "name": "",
          "type": "uint256"
        }
      ],
      "stateMutability": "view",
      "type": "function"
    },
    {
      "inputs": [],
      "name": "presaleMint",
      "outputs": [],
      "stateMutability": "payable",
      "type": "function"
    },
    {
      "inputs": [],
      "name": "presaleStarted",
      "outputs": [
        {
          "internalType": "bool",
          "name": "",
          "type": "bool"
        }
      ],
      "stateMutability": "view",
      "type": "function"
    },
    {
      "inputs": [],
      "name": "renounceOwnership",
      "outputs": [],
      "stateMutability": "nonpayable",
      "type": "function"
    },
    {
      "inputs": [
        {
          "internalType": "address",
          "name": "from",
          "type": "address"
        },
        {
          "internalType": "address",
          "name": "to",
          "type": "address"
        },
        {
          "internalType": "uint256",
          "name": "tokenId",
          "type": "uint256"
        }
      ],
      "name": "safeTransferFrom",
      "outputs": [],
      "stateMutability": "nonpayable",
      "type": "function"
    },
    {
      "inputs": [
        {
          "internalType": "address",
          "name": "from",
          "type": "address"
        },
        {
          "internalType": "address",
          "name": "to",
          "type": "address"
        },
        {
          "internalType": "uint256",
          "name": "tokenId",
          "type": "uint256"
        },
        {
          "internalType": "bytes",
          "name": "_data",
          "type": "bytes"
        }
      ],
      "name": "safeTransferFrom",
      "outputs": [],
      "stateMutability": "nonpayable",
      "type": "function"
    },
    {
      "inputs": [
        {
          "internalType": "address",
          "name": "operator",
          "type": "address"
        },
        {
          "internalType": "bool",
          "name": "approved",
          "type": "bool"
        }
      ],
      "name": "setApprovalForAll",
      "outputs": [],
      "stateMutability": "nonpayable",
      "type": "function"
    },
    {
      "inputs": [
        {
          "internalType": "bool",
          "name": "val",
          "type": "bool"
        }
      ],
      "name": "setPaused",
      "outputs": [],
      "stateMutability": "nonpayable",
      "type": "function"
    },
    {
      "inputs": [
        {
          "internalType": "bytes4",
          "name": "interfaceId",
          "type": "bytes4"
        }
      ],
      "name": "supportsInterface",
      "outputs": [
        {
          "internalType": "bool",
          "name": "",
          "type": "bool"
        }
      ],
      "stateMutability": "view",
      "type": "function"
    },
    {
      "inputs": [],
      "name": "symbol",
      "outputs": [
        {
          "internalType": "string",
          "name": "",
          "type": "string"
        }
      ],
      "stateMutability": "view",
      "type": "function"
    },
    {
      "inputs": [
        {
          "internalType": "uint256",
          "name": "index",
          "type": "uint256"
        }
      ],
      "name": "tokenByIndex",
      "outputs": [
        {
          "internalType": "uint256",
          "name": "",
          "type": "uint256"
        }
      ],
      "stateMutability": "view",
      "type": "function"
    },
    {
      "inputs": [],
      "name": "tokenIds",
      "outputs": [
        {
          "internalType": "uint256",
          "name": "",
          "type": "uint256"
        }
      ],
      "stateMutability": "view",
      "type": "function"
    },
    {
      "inputs": [
        {
          "internalType": "address",
          "name": "owner",
          "type": "address"
        },
        {
          "internalType": "uint256",
          "name": "index",
          "type": "uint256"
        }
      ],
      "name": "tokenOfOwnerByIndex",
      "outputs": [
        {
          "internalType": "uint256",
          "name": "",
          "type": "uint256"
        }
      ],
      "stateMutability": "view",
      "type": "function"
    },
    {
      "inputs": [
        {
          "internalType": "uint256",
          "name": "tokenId",
          "type": "uint256"
        }
      ],
      "name": "tokenURI",
      "outputs": [
        {
          "internalType": "string",
          "name": "",
          "type": "string"
        }
      ],
      "stateMutability": "view",
      "type": "function"
    },
    {
      "inputs": [],
      "name": "totalSupply",
      "outputs": [
        {
          "internalType": "uint256",
          "name": "",
          "type": "uint256"
        }
      ],
      "stateMutability": "view",
      "type": "function"
    },
    {
      "inputs": [
        {
          "internalType": "address",
          "name": "from",
          "type": "address"
        },
        {
          "internalType": "address",
          "name": "to",
          "type": "address"
        },
        {
          "internalType": "uint256",
          "name": "tokenId",
          "type": "uint256"
        }
      ],
      "name": "transferFrom",
      "outputs": [],
      "stateMutability": "nonpayable",
      "type": "function"
    },
    {
      "inputs": [
        {
          "internalType": "address",
          "name": "newOwner",
          "type": "address"
        }
      ],
      "name": "transferOwnership",
      "outputs": [],
      "stateMutability": "nonpayable",
      "type": "function"
    },
    {
      "inputs": [],
      "name": "withdraw",
      "outputs": [],
      "stateMutability": "nonpayable",
      "type": "function"
    },
    {
      "stateMutability": "payable",
      "type": "receive"
    }
  ],
  "bytecode": "0x6080604052662386f26fc10000600c556014600e553480156200002157600080fd5b506040516200460738038062004607833981810160405281019062000047919062000370565b6040518060400160405280600a81526020017f43727970746f44657673000000000000000000000000000000000000000000008152506040518060400160405280600281526020017f43440000000000000000000000000000000000000000000000000000000000008152508160009080519060200190620000cb92919062000237565b508060019080519060200190620000e492919062000237565b50505062000107620000fb6200016960201b60201c565b6200017160201b60201c565b81600b90805190602001906200011f92919062000237565b5080601060006101000a81548173ffffffffffffffffffffffffffffffffffffffff021916908373ffffffffffffffffffffffffffffffffffffffff160217905550505062000588565b600033905090565b6000600a60009054906101000a900473ffffffffffffffffffffffffffffffffffffffff16905081600a60006101000a81548173ffffffffffffffffffffffffffffffffffffffff021916908373ffffffffffffffffffffffffffffffffffffffff1602179055508173ffffffffffffffffffffffffffffffffffffffff168173ffffffffffffffffffffffffffffffffffffffff167f8be0079c531659141344cd1fd0a4f28419497f9722a3daafe3b4186f6b6457e060405160405180910390a35050565b828054620002459062000493565b90600052602060002090601f016020900481019282620002695760008555620002b5565b82601f106200028457805160ff1916838001178555620002b5565b82800160010185558215620002b5579182015b82811115620002b457825182559160200191906001019062000297565b5b509050620002c49190620002c8565b5090565b5b80821115620002e3576000816000905550600101620002c9565b5090565b6000620002fe620002f884620003f3565b620003ca565b9050828152602081018484840111156200031757600080fd5b620003248482856200045d565b509392505050565b6000815190506200033d816200056e565b92915050565b600082601f8301126200035557600080fd5b815162000367848260208601620002e7565b91505092915050565b600080604083850312156200038457600080fd5b600083015167ffffffffffffffff8111156200039f57600080fd5b620003ad8582860162000343565b9250506020620003c0858286016200032c565b9150509250929050565b6000620003d6620003e9565b9050620003e48282620004c9565b919050565b6000604051905090565b600067ffffffffffffffff8211156200041157620004106200052e565b5b6200041c826200055d565b9050602081019050919050565b600062000436826200043d565b9050919050565b600073ffffffffffffffffffffffffffffffffffffffff82169050919050565b60005b838110156200047d57808201518184015260208101905062000460565b838111156200048d576000848401525b50505050565b60006002820490506001821680620004ac57607f821691505b60208210811415620004c357620004c2620004ff565b5b50919050565b620004d4826200055d565b810181811067ffffffffffffffff82111715620004f657620004f56200052e565b5b80604052505050565b7f4e487b7100000000000000000000000000000000000000000000000000000000600052602260045260246000fd5b7f4e487b7100000000000000000000000000000000000000000000000000000000600052604160045260246000fd5b6000601f19601f8301169050919050565b620005798162000429565b81146200058557600080fd5b50565b61406f80620005986000396000f3fe6080604052600436106101c65760003560e01c80634f6ccce7116100f75780638da5cb5b11610095578063c87b56dd11610064578063c87b56dd146105f8578063e580b2b014610635578063e985e9c514610660578063f2fde38b1461069d576101cd565b80638da5cb5b1461055057806395d89b411461057b578063a22cb465146105a6578063b88d4fde146105cf576101cd565b80636352211e116100d15780636352211e1461049457806370a08231146104d1578063714cff561461050e578063715018a614610539576101cd565b80634f6ccce71461042257806359533d6c1461045f5780635f76962114610469576101cd565b806316c61ccc1161016457806323b872dd1161013e57806323b872dd1461037c5780632f745c59146103a55780633ccfd60b146103e257806342842e0e146103f9576101cd565b806316c61ccc146102fb57806318160ddd14610326578063235b6ea114610351576101cd565b8063081812fc116101a0578063081812fc14610262578063095ea7b31461029f5780631249c58b146102c857806316c38b3c146102d2576101cd565b806301ffc9a7146101cf57806304549d6f1461020c57806306fdde0314610237576101cd565b366101cd57005b005b3480156101db57600080fd5b506101f660048036038101906101f19190612c5d565b6106c6565b60405161020391906131f9565b60405180910390f35b34801561021857600080fd5b50610221610740565b60405161022e91906131f9565b60405180910390f35b34801561024357600080fd5b5061024c610753565b6040516102599190613214565b60405180910390f35b34801561026e57600080fd5b5061028960048036038101906102849190612caf565b6107e5565b6040516102969190613192565b60405180910390f35b3480156102ab57600080fd5b506102c660048036038101906102c19190612bcf565b61086a565b005b6102d0610982565b005b3480156102de57600080fd5b506102f960048036038101906102f49190612c0b565b610ae2565b005b34801561030757600080fd5b50610310610b7b565b60405161031d91906131f9565b60405180910390f35b34801561033257600080fd5b5061033b610b8e565b6040516103489190613576565b60405180910390f35b34801561035d57600080fd5b50610366610b9b565b6040516103739190613576565b60405180910390f35b34801561038857600080fd5b506103a3600480360381019061039e9190612ac9565b610ba1565b005b3480156103b157600080fd5b506103cc60048036038101906103c79190612bcf565b610c01565b6040516103d99190613576565b60405180910390f35b3480156103ee57600080fd5b506103f7610ca6565b005b34801561040557600080fd5b50610420600480360381019061041b9190612ac9565b610de4565b005b34801561042e57600080fd5b5061044960048036038101906104449190612caf565b610e04565b6040516104569190613576565b60405180910390f35b610467610e9b565b005b34801561047557600080fd5b5061047e6110e4565b60405161048b9190613576565b60405180910390f35b3480156104a057600080fd5b506104bb60048036038101906104b69190612caf565b6110ea565b6040516104c89190613192565b60405180910390f35b3480156104dd57600080fd5b506104f860048036038101906104f39190612a64565b61119c565b6040516105059190613576565b60405180910390f35b34801561051a57600080fd5b50610523611254565b6040516105309190613576565b60405180910390f35b34801561054557600080fd5b5061054e61125a565b005b34801561055c57600080fd5b506105656112e2565b6040516105729190613192565b60405180910390f35b34801561058757600080fd5b5061059061130c565b60405161059d9190613214565b60405180910390f35b3480156105b257600080fd5b506105cd60048036038101906105c89190612b93565b61139e565b005b3480156105db57600080fd5b506105f660048036038101906105f19190612b18565b6113b4565b005b34801561060457600080fd5b5061061f600480360381019061061a9190612caf565b611416565b60405161062c9190613214565b60405180910390f35b34801561064157600080fd5b5061064a6114bd565b6040516106579190613576565b60405180910390f35b34801561066c57600080fd5b5061068760048036038101906106829190612a8d565b6114c3565b60405161069491906131f9565b60405180910390f35b3480156106a957600080fd5b506106c460048036038101906106bf9190612a64565b611557565b005b60007f780e9d63000000000000000000000000000000000000000000000000000000007bffffffffffffffffffffffffffffffffffffffffffffffffffffffff1916827bffffffffffffffffffffffffffffffffffffffffffffffffffffffff1916148061073957506107388261164f565b5b9050919050565b601060149054906101000a900460ff1681565b606060008054610762906137a6565b80601f016020809104026020016040519081016040528092919081815260200182805461078e906137a6565b80156107db5780601f106107b0576101008083540402835291602001916107db565b820191906000526020600020905b8154815290600101906020018083116107be57829003601f168201915b5050505050905090565b60006107f082611731565b61082f576040517f08c379a000000000000000000000000000000000000000000000000000000000815260040161082690613456565b60405180910390fd5b6004600083815260200190815260200160002060009054906101000a900473ffffffffffffffffffffffffffffffffffffffff169050919050565b6000610875826110ea565b90508073ffffffffffffffffffffffffffffffffffffffff168373ffffffffffffffffffffffffffffffffffffffff1614156108e6576040517f08c379a00000000000000000000000000000000000000000000000000000000081526004016108dd906134d6565b60405180910390fd5b8073ffffffffffffffffffffffffffffffffffffffff1661090561179d565b73ffffffffffffffffffffffffffffffffffffffff16148061093457506109338161092e61179d565b6114c3565b5b610973576040517f08c379a000000000000000000000000000000000000000000000000000000000815260040161096a90613396565b60405180910390fd5b61097d83836117a5565b505050565b600d60009054906101000a900460ff16156109d2576040517f08c379a00000000000000000000000000000000000000000000000000000000081526004016109c9906134b6565b60405180910390fd5b601060149054906101000a900460ff1680156109f057506011544210155b610a2f576040517f08c379a0000000000000000000000000000000000000000000000000000000008152600401610a2690613556565b60405180910390fd5b600e54600f5410610a75576040517f08c379a0000000000000000000000000000000000000000000000000000000008152600401610a6c90613296565b60405180910390fd5b600c54341015610aba576040517f08c379a0000000000000000000000000000000000000000000000000000000008152600401610ab1906134f6565b60405180910390fd5b6001600f6000828254610acd9190613635565b92505081905550610ae033600f5461185e565b565b610aea61179d565b73ffffffffffffffffffffffffffffffffffffffff16610b086112e2565b73ffffffffffffffffffffffffffffffffffffffff1614610b5e576040517f08c379a0000000000000000000000000000000000000000000000000000000008152600401610b5590613476565b60405180910390fd5b80600d60006101000a81548160ff02191690831515021790555050565b600d60009054906101000a900460ff1681565b6000600880549050905090565b600c5481565b610bb2610bac61179d565b8261187c565b610bf1576040517f08c379a0000000000000000000000000000000000000000000000000000000008152600401610be890613516565b60405180910390fd5b610bfc83838361195a565b505050565b6000610c0c8361119c565b8210610c4d576040517f08c379a0000000000000000000000000000000000000000000000000000000008152600401610c4490613236565b60405180910390fd5b600660008473ffffffffffffffffffffffffffffffffffffffff1673ffffffffffffffffffffffffffffffffffffffff168152602001908152602001600020600083815260200190815260200160002054905092915050565b610cae61179d565b73ffffffffffffffffffffffffffffffffffffffff16610ccc6112e2565b73ffffffffffffffffffffffffffffffffffffffff1614610d22576040517f08c379a0000000000000000000000000000000000000000000000000000000008152600401610d1990613476565b60405180910390fd5b6000610d2c6112e2565b9050600047905060008273ffffffffffffffffffffffffffffffffffffffff1682604051610d599061317d565b60006040518083038185875af1925050503d8060008114610d96576040519150601f19603f3d011682016040523d82523d6000602084013e610d9b565b606091505b5050905080610ddf576040517f08c379a0000000000000000000000000000000000000000000000000000000008152600401610dd690613316565b60405180910390fd5b505050565b610dff838383604051806020016040528060008152506113b4565b505050565b6000610e0e610b8e565b8210610e4f576040517f08c379a0000000000000000000000000000000000000000000000000000000008152600401610e4690613536565b60405180910390fd5b60088281548110610e89577f4e487b7100000000000000000000000000000000000000000000000000000000600052603260045260246000fd5b90600052602060002001549050919050565b600d60009054906101000a900460ff1615610eeb576040517f08c379a0000000000000000000000000000000000000000000000000000000008152600401610ee2906134b6565b60405180910390fd5b601060149054906101000a900460ff168015610f08575060115442105b610f47576040517f08c379a0000000000000000000000000000000000000000000000000000000008152600401610f3e906132f6565b60405180910390fd5b601060009054906101000a900473ffffffffffffffffffffffffffffffffffffffff1673ffffffffffffffffffffffffffffffffffffffff166306c933d8336040518263ffffffff1660e01b8152600401610fa29190613192565b60206040518083038186803b158015610fba57600080fd5b505afa158015610fce573d6000803e3d6000fd5b505050506040513d601f19601f82011682018060405250810190610ff29190612c34565b611031576040517f08c379a000000000000000000000000000000000000000000000000000000000815260040161102890613436565b60405180910390fd5b600e54600f5410611077576040517f08c379a000000000000000000000000000000000000000000000000000000000815260040161106e906133f6565b60405180910390fd5b600c543410156110bc576040517f08c379a00000000000000000000000000000000000000000000000000000000081526004016110b3906134f6565b60405180910390fd5b6001600f60008282546110cf9190613635565b925050819055506110e233600f5461185e565b565b600e5481565b6000806002600084815260200190815260200160002060009054906101000a900473ffffffffffffffffffffffffffffffffffffffff169050600073ffffffffffffffffffffffffffffffffffffffff168173ffffffffffffffffffffffffffffffffffffffff161415611193576040517f08c379a000000000000000000000000000000000000000000000000000000000815260040161118a906133d6565b60405180910390fd5b80915050919050565b60008073ffffffffffffffffffffffffffffffffffffffff168273ffffffffffffffffffffffffffffffffffffffff16141561120d576040517f08c379a0000000000000000000000000000000000000000000000000000000008152600401611204906133b6565b60405180910390fd5b600360008373ffffffffffffffffffffffffffffffffffffffff1673ffffffffffffffffffffffffffffffffffffffff168152602001908152602001600020549050919050565b600f5481565b61126261179d565b73ffffffffffffffffffffffffffffffffffffffff166112806112e2565b73ffffffffffffffffffffffffffffffffffffffff16146112d6576040517f08c379a00000000000000000000000000000000000000000000000000000000081526004016112cd90613476565b60405180910390fd5b6112e06000611bc1565b565b6000600a60009054906101000a900473ffffffffffffffffffffffffffffffffffffffff16905090565b60606001805461131b906137a6565b80601f0160208091040260200160405190810160405280929190818152602001828054611347906137a6565b80156113945780601f1061136957610100808354040283529160200191611394565b820191906000526020600020905b81548152906001019060200180831161137757829003601f168201915b5050505050905090565b6113b06113a961179d565b8383611c87565b5050565b6113c56113bf61179d565b8361187c565b611404576040517f08c379a00000000000000000000000000000000000000000000000000000000081526004016113fb90613516565b60405180910390fd5b61141084848484611df4565b50505050565b606061142182611731565b611460576040517f08c379a000000000000000000000000000000000000000000000000000000000815260040161145790613496565b60405180910390fd5b600061146a611e50565b9050600081511161148a57604051806020016040528060008152506114b5565b8061149484611ee2565b6040516020016114a5929190613159565b6040516020818303038152906040525b915050919050565b60115481565b6000600560008473ffffffffffffffffffffffffffffffffffffffff1673ffffffffffffffffffffffffffffffffffffffff16815260200190815260200160002060008373ffffffffffffffffffffffffffffffffffffffff1673ffffffffffffffffffffffffffffffffffffffff16815260200190815260200160002060009054906101000a900460ff16905092915050565b61155f61179d565b73ffffffffffffffffffffffffffffffffffffffff1661157d6112e2565b73ffffffffffffffffffffffffffffffffffffffff16146115d3576040517f08c379a00000000000000000000000000000000000000000000000000000000081526004016115ca90613476565b60405180910390fd5b600073ffffffffffffffffffffffffffffffffffffffff168173ffffffffffffffffffffffffffffffffffffffff161415611643576040517f08c379a000000000000000000000000000000000000000000000000000000000815260040161163a90613276565b60405180910390fd5b61164c81611bc1565b50565b60007f80ac58cd000000000000000000000000000000000000000000000000000000007bffffffffffffffffffffffffffffffffffffffffffffffffffffffff1916827bffffffffffffffffffffffffffffffffffffffffffffffffffffffff1916148061171a57507f5b5e139f000000000000000000000000000000000000000000000000000000007bffffffffffffffffffffffffffffffffffffffffffffffffffffffff1916827bffffffffffffffffffffffffffffffffffffffffffffffffffffffff1916145b8061172a57506117298261208f565b5b9050919050565b60008073ffffffffffffffffffffffffffffffffffffffff166002600084815260200190815260200160002060009054906101000a900473ffffffffffffffffffffffffffffffffffffffff1673ffffffffffffffffffffffffffffffffffffffff1614159050919050565b600033905090565b816004600083815260200190815260200160002060006101000a81548173ffffffffffffffffffffffffffffffffffffffff021916908373ffffffffffffffffffffffffffffffffffffffff160217905550808273ffffffffffffffffffffffffffffffffffffffff16611818836110ea565b73ffffffffffffffffffffffffffffffffffffffff167f8c5be1e5ebec7d5bd14f71427d1e84f3dd0314c0f7b2291e5b200ac8c7c3b92560405160405180910390a45050565b6118788282604051806020016040528060008152506120f9565b5050565b600061188782611731565b6118c6576040517f08c379a00000000000000000000000000000000000000000000000000000000081526004016118bd90613376565b60405180910390fd5b60006118d1836110ea565b90508073ffffffffffffffffffffffffffffffffffffffff168473ffffffffffffffffffffffffffffffffffffffff161480611913575061191281856114c3565b5b8061195157508373ffffffffffffffffffffffffffffffffffffffff16611939846107e5565b73ffffffffffffffffffffffffffffffffffffffff16145b91505092915050565b8273ffffffffffffffffffffffffffffffffffffffff1661197a826110ea565b73ffffffffffffffffffffffffffffffffffffffff16146119d0576040517f08c379a00000000000000000000000000000000000000000000000000000000081526004016119c7906132b6565b60405180910390fd5b600073ffffffffffffffffffffffffffffffffffffffff168273ffffffffffffffffffffffffffffffffffffffff161415611a40576040517f08c379a0000000000000000000000000000000000000000000000000000000008152600401611a3790613336565b60405180910390fd5b611a4b838383612154565b611a566000826117a5565b6001600360008573ffffffffffffffffffffffffffffffffffffffff1673ffffffffffffffffffffffffffffffffffffffff1681526020019081526020016000206000828254611aa691906136bc565b925050819055506001600360008473ffffffffffffffffffffffffffffffffffffffff1673ffffffffffffffffffffffffffffffffffffffff1681526020019081526020016000206000828254611afd9190613635565b92505081905550816002600083815260200190815260200160002060006101000a81548173ffffffffffffffffffffffffffffffffffffffff021916908373ffffffffffffffffffffffffffffffffffffffff160217905550808273ffffffffffffffffffffffffffffffffffffffff168473ffffffffffffffffffffffffffffffffffffffff167fddf252ad1be2c89b69c2b068fc378daa952ba7f163c4a11628f55a4df523b3ef60405160405180910390a4611bbc838383612268565b505050565b6000600a60009054906101000a900473ffffffffffffffffffffffffffffffffffffffff16905081600a60006101000a81548173ffffffffffffffffffffffffffffffffffffffff021916908373ffffffffffffffffffffffffffffffffffffffff1602179055508173ffffffffffffffffffffffffffffffffffffffff168173ffffffffffffffffffffffffffffffffffffffff167f8be0079c531659141344cd1fd0a4f28419497f9722a3daafe3b4186f6b6457e060405160405180910390a35050565b8173ffffffffffffffffffffffffffffffffffffffff168373ffffffffffffffffffffffffffffffffffffffff161415611cf6576040517f08c379a0000000000000000000000000000000000000000000000000000000008152600401611ced90613356565b60405180910390fd5b80600560008573ffffffffffffffffffffffffffffffffffffffff1673ffffffffffffffffffffffffffffffffffffffff16815260200190815260200160002060008473ffffffffffffffffffffffffffffffffffffffff1673ffffffffffffffffffffffffffffffffffffffff16815260200190815260200160002060006101000a81548160ff0219169083151502179055508173ffffffffffffffffffffffffffffffffffffffff168373ffffffffffffffffffffffffffffffffffffffff167f17307eab39ab6107e8899845ad3d59bd9653f200f220920489ca2b5937696c3183604051611de791906131f9565b60405180910390a3505050565b611dff84848461195a565b611e0b8484848461226d565b611e4a576040517f08c379a0000000000000000000000000000000000000000000000000000000008152600401611e4190613256565b60405180910390fd5b50505050565b6060600b8054611e5f906137a6565b80601f0160208091040260200160405190810160405280929190818152602001828054611e8b906137a6565b8015611ed85780601f10611ead57610100808354040283529160200191611ed8565b820191906000526020600020905b815481529060010190602001808311611ebb57829003601f168201915b5050505050905090565b60606000821415611f2a576040518060400160405280600181526020017f3000000000000000000000000000000000000000000000000000000000000000815250905061208a565b600082905060005b60008214611f5c578080611f4590613809565b915050600a82611f55919061368b565b9150611f32565b60008167ffffffffffffffff811115611f9e577f4e487b7100000000000000000000000000000000000000000000000000000000600052604160045260246000fd5b6040519080825280601f01601f191660200182016040528015611fd05781602001600182028036833780820191505090505b5090505b6000851461208357600182611fe991906136bc565b9150600a85611ff89190613852565b60306120049190613635565b60f81b818381518110612040577f4e487b7100000000000000000000000000000000000000000000000000000000600052603260045260246000fd5b60200101907effffffffffffffffffffffffffffffffffffffffffffffffffffffffffffff1916908160001a905350600a8561207c919061368b565b9450611fd4565b8093505050505b919050565b60007f01ffc9a7000000000000000000000000000000000000000000000000000000007bffffffffffffffffffffffffffffffffffffffffffffffffffffffff1916827bffffffffffffffffffffffffffffffffffffffffffffffffffffffff1916149050919050565b6121038383612404565b612110600084848461226d565b61214f576040517f08c379a000000000000000000000000000000000000000000000000000000000815260040161214690613256565b60405180910390fd5b505050565b61215f8383836125de565b600073ffffffffffffffffffffffffffffffffffffffff168373ffffffffffffffffffffffffffffffffffffffff1614156121a25761219d816125e3565b6121e1565b8173ffffffffffffffffffffffffffffffffffffffff168373ffffffffffffffffffffffffffffffffffffffff16146121e0576121df838261262c565b5b5b600073ffffffffffffffffffffffffffffffffffffffff168273ffffffffffffffffffffffffffffffffffffffff1614156122245761221f81612799565b612263565b8273ffffffffffffffffffffffffffffffffffffffff168273ffffffffffffffffffffffffffffffffffffffff16146122625761226182826128dc565b5b5b505050565b505050565b600061228e8473ffffffffffffffffffffffffffffffffffffffff1661295b565b156123f7578373ffffffffffffffffffffffffffffffffffffffff1663150b7a026122b761179d565b8786866040518563ffffffff1660e01b81526004016122d994939291906131ad565b602060405180830381600087803b1580156122f357600080fd5b505af192505050801561232457506040513d601f19601f820116820180604052508101906123219190612c86565b60015b6123a7573d8060008114612354576040519150601f19603f3d011682016040523d82523d6000602084013e612359565b606091505b5060008151141561239f576040517f08c379a000000000000000000000000000000000000000000000000000000000815260040161239690613256565b60405180910390fd5b805181602001fd5b63150b7a0260e01b7bffffffffffffffffffffffffffffffffffffffffffffffffffffffff1916817bffffffffffffffffffffffffffffffffffffffffffffffffffffffff1916149150506123fc565b600190505b949350505050565b600073ffffffffffffffffffffffffffffffffffffffff168273ffffffffffffffffffffffffffffffffffffffff161415612474576040517f08c379a000000000000000000000000000000000000000000000000000000000815260040161246b90613416565b60405180910390fd5b61247d81611731565b156124bd576040517f08c379a00000000000000000000000000000000000000000000000000000000081526004016124b4906132d6565b60405180910390fd5b6124c960008383612154565b6001600360008473ffffffffffffffffffffffffffffffffffffffff1673ffffffffffffffffffffffffffffffffffffffff16815260200190815260200160002060008282546125199190613635565b92505081905550816002600083815260200190815260200160002060006101000a81548173ffffffffffffffffffffffffffffffffffffffff021916908373ffffffffffffffffffffffffffffffffffffffff160217905550808273ffffffffffffffffffffffffffffffffffffffff16600073ffffffffffffffffffffffffffffffffffffffff167fddf252ad1be2c89b69c2b068fc378daa952ba7f163c4a11628f55a4df523b3ef60405160405180910390a46125da60008383612268565b5050565b505050565b6008805490506009600083815260200190815260200160002081905550600881908060018154018082558091505060019003906000526020600020016000909190919091505550565b600060016126398461119c565b61264391906136bc565b9050600060076000848152602001908152602001600020549050818114612728576000600660008673ffffffffffffffffffffffffffffffffffffffff1673ffffffffffffffffffffffffffffffffffffffff168152602001908152602001600020600084815260200190815260200160002054905080600660008773ffffffffffffffffffffffffffffffffffffffff1673ffffffffffffffffffffffffffffffffffffffff168152602001908152602001600020600084815260200190815260200160002081905550816007600083815260200190815260200160002081905550505b6007600084815260200190815260200160002060009055600660008573ffffffffffffffffffffffffffffffffffffffff1673ffffffffffffffffffffffffffffffffffffffff16815260200190815260200160002060008381526020019081526020016000206000905550505050565b600060016008805490506127ad91906136bc565b9050600060096000848152602001908152602001600020549050600060088381548110612803577f4e487b7100000000000000000000000000000000000000000000000000000000600052603260045260246000fd5b90600052602060002001549050806008838154811061284b577f4e487b7100000000000000000000000000000000000000000000000000000000600052603260045260246000fd5b9060005260206000200181905550816009600083815260200190815260200160002081905550600960008581526020019081526020016000206000905560088054806128c0577f4e487b7100000000000000000000000000000000000000000000000000000000600052603160045260246000fd5b6001900381819060005260206000200160009055905550505050565b60006128e78361119c565b905081600660008573ffffffffffffffffffffffffffffffffffffffff1673ffffffffffffffffffffffffffffffffffffffff168152602001908152602001600020600083815260200190815260200160002081905550806007600084815260200190815260200160002081905550505050565b6000808273ffffffffffffffffffffffffffffffffffffffff163b119050919050565b600061299161298c846135b6565b613591565b9050828152602081018484840111156129a957600080fd5b6129b4848285613764565b509392505050565b6000813590506129cb81613fdd565b92915050565b6000813590506129e081613ff4565b92915050565b6000815190506129f581613ff4565b92915050565b600081359050612a0a8161400b565b92915050565b600081519050612a1f8161400b565b92915050565b600082601f830112612a3657600080fd5b8135612a4684826020860161297e565b91505092915050565b600081359050612a5e81614022565b92915050565b600060208284031215612a7657600080fd5b6000612a84848285016129bc565b91505092915050565b60008060408385031215612aa057600080fd5b6000612aae858286016129bc565b9250506020612abf858286016129bc565b9150509250929050565b600080600060608486031215612ade57600080fd5b6000612aec868287016129bc565b9350506020612afd868287016129bc565b9250506040612b0e86828701612a4f565b9150509250925092565b60008060008060808587031215612b2e57600080fd5b6000612b3c878288016129bc565b9450506020612b4d878288016129bc565b9350506040612b5e87828801612a4f565b925050606085013567ffffffffffffffff811115612b7b57600080fd5b612b8787828801612a25565b91505092959194509250565b60008060408385031215612ba657600080fd5b6000612bb4858286016129bc565b9250506020612bc5858286016129d1565b9150509250929050565b60008060408385031215612be257600080fd5b6000612bf0858286016129bc565b9250506020612c0185828601612a4f565b9150509250929050565b600060208284031215612c1d57600080fd5b6000612c2b848285016129d1565b91505092915050565b600060208284031215612c4657600080fd5b6000612c54848285016129e6565b91505092915050565b600060208284031215612c6f57600080fd5b6000612c7d848285016129fb565b91505092915050565b600060208284031215612c9857600080fd5b6000612ca684828501612a10565b91505092915050565b600060208284031215612cc157600080fd5b6000612ccf84828501612a4f565b91505092915050565b612ce1816136f0565b82525050565b612cf081613702565b82525050565b6000612d01826135e7565b612d0b81856135fd565b9350612d1b818560208601613773565b612d248161393f565b840191505092915050565b6000612d3a826135f2565b612d448185613619565b9350612d54818560208601613773565b612d5d8161393f565b840191505092915050565b6000612d73826135f2565b612d7d818561362a565b9350612d8d818560208601613773565b80840191505092915050565b6000612da6602b83613619565b9150612db182613950565b604082019050919050565b6000612dc9603283613619565b9150612dd48261399f565b604082019050919050565b6000612dec602683613619565b9150612df7826139ee565b604082019050919050565b6000612e0f602183613619565b9150612e1a82613a3d565b604082019050919050565b6000612e32602583613619565b9150612e3d82613a8c565b604082019050919050565b6000612e55601c83613619565b9150612e6082613adb565b602082019050919050565b6000612e78601683613619565b9150612e8382613b04565b602082019050919050565b6000612e9b601483613619565b9150612ea682613b2d565b602082019050919050565b6000612ebe602483613619565b9150612ec982613b56565b604082019050919050565b6000612ee1601983613619565b9150612eec82613ba5565b602082019050919050565b6000612f04602c83613619565b9150612f0f82613bce565b604082019050919050565b6000612f27603883613619565b9150612f3282613c1d565b604082019050919050565b6000612f4a602a83613619565b9150612f5582613c6c565b604082019050919050565b6000612f6d602983613619565b9150612f7882613cbb565b604082019050919050565b6000612f90602383613619565b9150612f9b82613d0a565b604082019050919050565b6000612fb3602083613619565b9150612fbe82613d59565b602082019050919050565b6000612fd6601783613619565b9150612fe182613d82565b602082019050919050565b6000612ff9602c83613619565b915061300482613dab565b604082019050919050565b600061301c602083613619565b915061302782613dfa565b602082019050919050565b600061303f602f83613619565b915061304a82613e23565b604082019050919050565b6000613062601983613619565b915061306d82613e72565b602082019050919050565b6000613085602183613619565b915061309082613e9b565b604082019050919050565b60006130a8601983613619565b91506130b382613eea565b602082019050919050565b60006130cb60008361360e565b91506130d682613f13565b600082019050919050565b60006130ee603183613619565b91506130f982613f16565b604082019050919050565b6000613111602c83613619565b915061311c82613f65565b604082019050919050565b6000613134601983613619565b915061313f82613fb4565b602082019050919050565b6131538161375a565b82525050565b60006131658285612d68565b91506131718284612d68565b91508190509392505050565b6000613188826130be565b9150819050919050565b60006020820190506131a76000830184612cd8565b92915050565b60006080820190506131c26000830187612cd8565b6131cf6020830186612cd8565b6131dc604083018561314a565b81810360608301526131ee8184612cf6565b905095945050505050565b600060208201905061320e6000830184612ce7565b92915050565b6000602082019050818103600083015261322e8184612d2f565b905092915050565b6000602082019050818103600083015261324f81612d99565b9050919050565b6000602082019050818103600083015261326f81612dbc565b9050919050565b6000602082019050818103600083015261328f81612ddf565b9050919050565b600060208201905081810360008301526132af81612e02565b9050919050565b600060208201905081810360008301526132cf81612e25565b9050919050565b600060208201905081810360008301526132ef81612e48565b9050919050565b6000602082019050818103600083015261330f81612e6b565b9050919050565b6000602082019050818103600083015261332f81612e8e565b9050919050565b6000602082019050818103600083015261334f81612eb1565b9050919050565b6000602082019050818103600083015261336f81612ed4565b9050919050565b6000602082019050818103600083015261338f81612ef7565b9050919050565b600060208201905081810360008301526133af81612f1a565b9050919050565b600060208201905081810360008301526133cf81612f3d565b9050919050565b600060208201905081810360008301526133ef81612f60565b9050919050565b6000602082019050818103600083015261340f81612f83565b9050919050565b6000602082019050818103600083015261342f81612fa6565b9050919050565b6000602082019050818103600083015261344f81612fc9565b9050919050565b6000602082019050818103600083015261346f81612fec565b9050919050565b6000602082019050818103600083015261348f8161300f565b9050919050565b600060208201905081810360008301526134af81613032565b9050919050565b600060208201905081810360008301526134cf81613055565b9050919050565b600060208201905081810360008301526134ef81613078565b9050919050565b6000602082019050818103600083015261350f8161309b565b9050919050565b6000602082019050818103600083015261352f816130e1565b9050919050565b6000602082019050818103600083015261354f81613104565b9050919050565b6000602082019050818103600083015261356f81613127565b9050919050565b600060208201905061358b600083018461314a565b92915050565b600061359b6135ac565b90506135a782826137d8565b919050565b6000604051905090565b600067ffffffffffffffff8211156135d1576135d0613910565b5b6135da8261393f565b9050602081019050919050565b600081519050919050565b600081519050919050565b600082825260208201905092915050565b600081905092915050565b600082825260208201905092915050565b600081905092915050565b60006136408261375a565b915061364b8361375a565b9250827fffffffffffffffffffffffffffffffffffffffffffffffffffffffffffffffff038211156136805761367f613883565b5b828201905092915050565b60006136968261375a565b91506136a18361375a565b9250826136b1576136b06138b2565b5b828204905092915050565b60006136c78261375a565b91506136d28361375a565b9250828210156136e5576136e4613883565b5b828203905092915050565b60006136fb8261373a565b9050919050565b60008115159050919050565b60007fffffffff0000000000000000000000000000000000000000000000000000000082169050919050565b600073ffffffffffffffffffffffffffffffffffffffff82169050919050565b6000819050919050565b82818337600083830152505050565b60005b83811015613791578082015181840152602081019050613776565b838111156137a0576000848401525b50505050565b600060028204905060018216806137be57607f821691505b602082108114156137d2576137d16138e1565b5b50919050565b6137e18261393f565b810181811067ffffffffffffffff82111715613800576137ff613910565b5b80604052505050565b60006138148261375a565b91507fffffffffffffffffffffffffffffffffffffffffffffffffffffffffffffffff82141561384757613846613883565b5b600182019050919050565b600061385d8261375a565b91506138688361375a565b925082613878576138776138b2565b5b828206905092915050565b7f4e487b7100000000000000000000000000000000000000000000000000000000600052601160045260246000fd5b7f4e487b7100000000000000000000000000000000000000000000000000000000600052601260045260246000fd5b7f4e487b7100000000000000000000000000000000000000000000000000000000600052602260045260246000fd5b7f4e487b7100000000000000000000000000000000000000000000000000000000600052604160045260246000fd5b6000601f19601f8301169050919050565b7f455243373231456e756d657261626c653a206f776e657220696e646578206f7560008201527f74206f6620626f756e6473000000000000000000000000000000000000000000602082015250565b7f4552433732313a207472616e7366657220746f206e6f6e20455243373231526560008201527f63656976657220696d706c656d656e7465720000000000000000000000000000602082015250565b7f4f776e61626c653a206e6577206f776e657220697320746865207a65726f206160008201527f6464726573730000000000000000000000000000000000000000000000000000602082015250565b7f457863656564206d6178696d756d2043727970746f204465767320737570706c60008201527f7900000000000000000000000000000000000000000000000000000000000000602082015250565b7f4552433732313a207472616e736665722066726f6d20696e636f72726563742060008201527f6f776e6572000000000000000000000000000000000000000000000000000000602082015250565b7f4552433732313a20746f6b656e20616c7265616479206d696e74656400000000600082015250565b7f50726573616c65206973206e6f742072756e6e696e6700000000000000000000600082015250565b7f4661696c656420746f2073656e64204574686572000000000000000000000000600082015250565b7f4552433732313a207472616e7366657220746f20746865207a65726f2061646460008201527f7265737300000000000000000000000000000000000000000000000000000000602082015250565b7f4552433732313a20617070726f766520746f2063616c6c657200000000000000600082015250565b7f4552433732313a206f70657261746f7220717565727920666f72206e6f6e657860008201527f697374656e7420746f6b656e0000000000000000000000000000000000000000602082015250565b7f4552433732313a20617070726f76652063616c6c6572206973206e6f74206f7760008201527f6e6572206e6f7220617070726f76656420666f7220616c6c0000000000000000602082015250565b7f4552433732313a2062616c616e636520717565727920666f7220746865207a6560008201527f726f206164647265737300000000000000000000000000000000000000000000602082015250565b7f4552433732313a206f776e657220717565727920666f72206e6f6e657869737460008201527f656e7420746f6b656e0000000000000000000000000000000000000000000000602082015250565b7f4578636565646564206d6178696d756d2043727970746f20446576732053757060008201527f706c790000000000000000000000000000000000000000000000000000000000602082015250565b7f4552433732313a206d696e7420746f20746865207a65726f2061646472657373600082015250565b7f596f7520617265206e6f742077686974656c6973746564000000000000000000600082015250565b7f4552433732313a20617070726f76656420717565727920666f72206e6f6e657860008201527f697374656e7420746f6b656e0000000000000000000000000000000000000000602082015250565b7f4f776e61626c653a2063616c6c6572206973206e6f7420746865206f776e6572600082015250565b7f4552433732314d657461646174613a2055524920717565727920666f72206e6f60008201527f6e6578697374656e7420746f6b656e0000000000000000000000000000000000602082015250565b7f436f6e74726163742063757272656e746c792070617573656400000000000000600082015250565b7f4552433732313a20617070726f76616c20746f2063757272656e74206f776e6560008201527f7200000000000000000000000000000000000000000000000000000000000000602082015250565b7f45746865722073656e74206973206e6f7420636f727265637400000000000000600082015250565b50565b7f4552433732313a207472616e736665722063616c6c6572206973206e6f74206f60008201527f776e6572206e6f7220617070726f766564000000000000000000000000000000602082015250565b7f455243373231456e756d657261626c653a20676c6f62616c20696e646578206f60008201527f7574206f6620626f756e64730000000000000000000000000000000000000000602082015250565b7f50726573616c6520686173206e6f7420656e6465642079657400000000000000600082015250565b613fe6816136f0565b8114613ff157600080fd5b50565b613ffd81613702565b811461400857600080fd5b50565b6140148161370e565b811461401f57600080fd5b50565b61402b8161375a565b811461403657600080fd5b5056fea26469706673582212201c0c0cd7ce311c8e340159833b4b686f636486ffc42ab94f34c55d0d0c6553a864736f6c63430008040033",
  "linkReferences": {},
  "deployedLinkReferences": {}
}